{
  "contractName": "Backend",
  "abi": [
    {
      "constant": true,
      "inputs": [
        {
          "name": "_owner",
          "type": "address"
        },
        {
          "name": "_spender",
          "type": "address"
        }
      ],
      "name": "getAllowance",
      "outputs": [
        {
          "name": "",
          "type": "uint256"
        }
      ],
      "payable": false,
      "stateMutability": "view",
      "type": "function"
    },
    {
      "constant": false,
      "inputs": [
        {
          "name": "_owner",
          "type": "address"
        }
      ],
      "name": "setOwner",
      "outputs": [],
      "payable": false,
      "stateMutability": "nonpayable",
      "type": "function"
    },
    {
      "constant": false,
      "inputs": [
        {
          "name": "_to",
          "type": "address"
        }
      ],
      "name": "destruct",
      "outputs": [],
      "payable": false,
      "stateMutability": "nonpayable",
      "type": "function"
    },
    {
      "constant": false,
      "inputs": [
        {
          "name": "_minted",
          "type": "uint256"
        }
      ],
      "name": "setMinted",
      "outputs": [],
      "payable": false,
      "stateMutability": "nonpayable",
      "type": "function"
    },
    {
      "constant": true,
      "inputs": [],
      "name": "getOwner",
      "outputs": [
        {
          "name": "",
          "type": "address"
        }
      ],
      "payable": false,
      "stateMutability": "view",
      "type": "function"
    },
    {
      "constant": true,
      "inputs": [],
      "name": "getMinted",
      "outputs": [
        {
          "name": "",
          "type": "uint256"
        }
      ],
      "payable": false,
      "stateMutability": "view",
      "type": "function"
    },
    {
      "constant": false,
      "inputs": [
        {
          "name": "_frontend",
          "type": "address"
        },
        {
          "name": "_allowed",
          "type": "bool"
        }
      ],
      "name": "setFrontend",
      "outputs": [],
      "payable": false,
      "stateMutability": "nonpayable",
      "type": "function"
    },
    {
      "constant": true,
      "inputs": [
        {
          "name": "_frontend",
          "type": "address"
        }
      ],
      "name": "isFrontendAllowed",
      "outputs": [
        {
          "name": "",
          "type": "bool"
        }
      ],
      "payable": false,
      "stateMutability": "view",
      "type": "function"
    },
    {
      "constant": false,
      "inputs": [
        {
          "name": "_owner",
          "type": "address"
        },
        {
          "name": "_spender",
          "type": "address"
        },
        {
          "name": "_amount",
          "type": "uint256"
        }
      ],
      "name": "setAllowance",
      "outputs": [],
      "payable": false,
      "stateMutability": "nonpayable",
      "type": "function"
    },
    {
      "constant": false,
      "inputs": [
        {
          "name": "_owner",
          "type": "address"
        },
        {
          "name": "_amount",
          "type": "uint256"
        }
      ],
      "name": "setBalance",
      "outputs": [],
      "payable": false,
      "stateMutability": "nonpayable",
      "type": "function"
    },
    {
      "constant": true,
      "inputs": [
        {
          "name": "_owner",
          "type": "address"
        }
      ],
      "name": "getBalance",
      "outputs": [
        {
          "name": "",
          "type": "uint256"
        }
      ],
      "payable": false,
      "stateMutability": "view",
      "type": "function"
    },
    {
      "inputs": [],
      "payable": false,
      "stateMutability": "nonpayable",
      "type": "constructor"
    }
  ],
  "bytecode": "0x6060604052341561000f57600080fd5b336000806101000a81548173ffffffffffffffffffffffffffffffffffffffff021916908373ffffffffffffffffffffffffffffffffffffffff1602179055506108e58061005e6000396000f3006060604052600436106100af576000357c0100000000000000000000000000000000000000000000000000000000900463ffffffff1680630af4187d146100b457806313af4035146101205780631beb261514610159578063823402f414610192578063893d20e8146101b5578063ac72200d1461020a578063b8ddd1f514610233578063baed12a414610277578063da46098c146102c8578063e30443bc14610329578063f8b2cb4f1461036b575b600080fd5b34156100bf57600080fd5b61010a600480803573ffffffffffffffffffffffffffffffffffffffff1690602001909190803573ffffffffffffffffffffffffffffffffffffffff169060200190919050506103b8565b6040518082815260200191505060405180910390f35b341561012b57600080fd5b610157600480803573ffffffffffffffffffffffffffffffffffffffff1690602001909190505061043f565b005b341561016457600080fd5b610190600480803573ffffffffffffffffffffffffffffffffffffffff169060200190919050506104dd565b005b341561019d57600080fd5b6101b36004808035906020019091905050610551565b005b34156101c057600080fd5b6101c86105b3565b604051808273ffffffffffffffffffffffffffffffffffffffff1673ffffffffffffffffffffffffffffffffffffffff16815260200191505060405180910390f35b341561021557600080fd5b61021d6105dc565b6040518082815260200191505060405180910390f35b341561023e57600080fd5b610275600480803573ffffffffffffffffffffffffffffffffffffffff1690602001909190803515159060200190919050506105e6565b005b341561028257600080fd5b6102ae600480803573ffffffffffffffffffffffffffffffffffffffff1690602001909190505061069c565b604051808215151515815260200191505060405180910390f35b34156102d357600080fd5b610327600480803573ffffffffffffffffffffffffffffffffffffffff1690602001909190803573ffffffffffffffffffffffffffffffffffffffff169060200190919080359060200190919050506106f2565b005b341561033457600080fd5b610369600480803573ffffffffffffffffffffffffffffffffffffffff169060200190919080359060200190919050506107d0565b005b341561037657600080fd5b6103a2600480803573ffffffffffffffffffffffffffffffffffffffff16906020019091905050610870565b6040518082815260200191505060405180910390f35b6000600360008473ffffffffffffffffffffffffffffffffffffffff1673ffffffffffffffffffffffffffffffffffffffff16815260200190815260200160002060008373ffffffffffffffffffffffffffffffffffffffff1673ffffffffffffffffffffffffffffffffffffffff16815260200190815260200160002054905092915050565b6000809054906101000a900473ffffffffffffffffffffffffffffffffffffffff1673ffffffffffffffffffffffffffffffffffffffff163373ffffffffffffffffffffffffffffffffffffffff1614151561049a57600080fd5b806000806101000a81548173ffffffffffffffffffffffffffffffffffffffff021916908373ffffffffffffffffffffffffffffffffffffffff16021790555050565b6000809054906101000a900473ffffffffffffffffffffffffffffffffffffffff1673ffffffffffffffffffffffffffffffffffffffff163373ffffffffffffffffffffffffffffffffffffffff1614151561053857600080fd5b8073ffffffffffffffffffffffffffffffffffffffff16ff5b600160003373ffffffffffffffffffffffffffffffffffffffff1673ffffffffffffffffffffffffffffffffffffffff16815260200190815260200160002060009054906101000a900460ff1615156105a957600080fd5b8060048190555050565b60008060009054906101000a900473ffffffffffffffffffffffffffffffffffffffff16905090565b6000600454905090565b6000809054906101000a900473ffffffffffffffffffffffffffffffffffffffff1673ffffffffffffffffffffffffffffffffffffffff163373ffffffffffffffffffffffffffffffffffffffff1614151561064157600080fd5b80600160008473ffffffffffffffffffffffffffffffffffffffff1673ffffffffffffffffffffffffffffffffffffffff16815260200190815260200160002060006101000a81548160ff0219169083151502179055505050565b6000600160008373ffffffffffffffffffffffffffffffffffffffff1673ffffffffffffffffffffffffffffffffffffffff16815260200190815260200160002060009054906101000a900460ff169050919050565b600160003373ffffffffffffffffffffffffffffffffffffffff1673ffffffffffffffffffffffffffffffffffffffff16815260200190815260200160002060009054906101000a900460ff16151561074a57600080fd5b80600360008573ffffffffffffffffffffffffffffffffffffffff1673ffffffffffffffffffffffffffffffffffffffff16815260200190815260200160002060008473ffffffffffffffffffffffffffffffffffffffff1673ffffffffffffffffffffffffffffffffffffffff16815260200190815260200160002081905550505050565b600160003373ffffffffffffffffffffffffffffffffffffffff1673ffffffffffffffffffffffffffffffffffffffff16815260200190815260200160002060009054906101000a900460ff16151561082857600080fd5b80600260008473ffffffffffffffffffffffffffffffffffffffff1673ffffffffffffffffffffffffffffffffffffffff168152602001908152602001600020819055505050565b6000600260008373ffffffffffffffffffffffffffffffffffffffff1673ffffffffffffffffffffffffffffffffffffffff1681526020019081526020016000205490509190505600a165627a7a723058203696dec35fd2a812bd939b60a20270960e6417bf29b92f160f73c2454f722a5b0029",
  "source": "pragma solidity ^0.4.18;\n\ncontract Backend {\n    address private owner;\n    mapping(address => bool) private frontends;\n\n    // Balances for each account\n    mapping(address => uint256) private balances;\n\n    // Owner of account approves the transfer of an amount to another account\n    mapping(address => mapping (address => uint256)) private allowed;\n\n    uint256 private minted;\n\n    function Backend() public {\n        owner = msg.sender;\n    }\n\n    function getOwner() public constant returns (address) {\n        return owner;\n    }\n\n    function setOwner(address _owner) external {\n        if (msg.sender != owner) {\n            revert();\n        }\n\n        owner = _owner;\n    }\n\n    function isFrontendAllowed(address _frontend) public constant returns (bool) {\n        return frontends[_frontend];\n    }\n\n    function setFrontend(address _frontend, bool _allowed) external {\n        if (msg.sender != owner) {\n            revert();\n        }\n        frontends[_frontend] = _allowed;\n    }\n\n    function getBalance(address _owner) public constant returns (uint256) {\n        return balances[_owner];\n    }\n\n    function setBalance(address _owner, uint256 _amount) external {\n        if (!frontends[msg.sender]) {\n            revert();\n        }\n\n        balances[_owner] = _amount;\n    }\n\n    function getAllowance(address _owner, address _spender) public constant returns (uint256) {\n        return allowed[_owner][_spender];\n    }\n\n    function setAllowance(address _owner, address _spender, uint256 _amount) external {\n        if (!frontends[msg.sender]) {\n            revert();\n        }\n\n        allowed[_owner][_spender] = _amount;\n    }\n\n    function getMinted() public constant returns (uint256) {\n        return minted;\n    }\n\n    function setMinted(uint256 _minted) external {\n        if (!frontends[msg.sender]) {\n            revert();\n        }\n\n        minted = _minted;\n    }\n\n    function destruct(address _to) external {\n        if (msg.sender != owner) {\n            revert();\n        }\n\n        selfdestruct(_to);\n    }\n}\n\n",
  "sourcePath": "/home/erik/src/github.com/erikdubbelboer/briancoin/contracts/Backend.sol",
  "compiler": {
    "name": "solc",
    "version": "0.4.18+commit.9cf6e910.Emscripten.clang"
  },
  "schemaVersion": "1.0.1",
  "updatedAt": "2017-12-31T04:25:03.300Z"
}